:10000000B9EF04F00000000000EF00F00000000075
:0A0010000000000000000000F3D71C
:06001C00000000001200CC
:0A002200210E0D6E0D2EFED7120008
:10002C000F0E0C6E470E0D6E0D2EFED70C2EFCD740
:06003C00000000001200AC
:1000420000017DBF02D0839E01D0838E7DBD02D090
:10005200839C01D0838C7DBB02D0839A01D0838A9A
:100062007DB902D0839801D083882DB002D08484D8
:1000720001D084948482D1DF84927DB702D0839EA2
:1000820001D0838E7DB502D0839C01D0838C7DB359
:1000920002D0839A01D0838A7DB102D0839801D0A5
:1000A20083882DB002D0848401D084948482B5DF09
:0E00B20084922DA002D0B9DF01D0B2DF12007F
:0800C0000AAE029E000E1200C0
:0E00C800026A016A006A086A036A000E1200EA
:1000D6000B840BAE76EF00F0010E036E026A016A26
:0A00E600006A0A360232FF0E120013
:1000F000086A096A100E0C6E01340836093604507D
:10010000085E0550D8A0053C095ED8B007D0045061
:1001100008260550D8B0053C0926D890003601368F
:060120000C2EEAD71200CC
:100126000B800BAE9FEF00F0026A0AAEFF0E026E66
:0C013600016E006E0A360232FF0E12004D
:100142000C6A0E6A0250D8A4BAEF00F001C002F0A5
:1001520000C001F0006A0E860250D8A4BAEF00F087
:1001620001C002F0016A0E960E880250D8B4CCEF9C
:1001720000F00E50035ED8A4D8A0D1EF00F0D890C2
:1001820002BED6EF00F0003601360236032EC1EF72
:1001920000F0D1EF00F0010E0C6E95DFD9EF00F008
:1001A200020E0C6E97DFD9EF00F0040E0C6E87DFA3
:0201B200120039
:0C01B4000E0E0D6E0D2EFED70000120086
:1001C0000B820BAEEAEF00F003680268016800687A
:0801D0000A360232FF0E120094
:0801D8000B6A0B86FF0E1200FA
:0C01E0002D907CC07DF02DDF2D801200E2
:1001EC000B6A0A6A096A00500402F4CF09F0F3CFD3
:1001FC0008F001500502F4CF0BF0F3CF0AF00050D9
:10020C000502F3500926F4500A22E86A0B22015029
:10021C000402F3500926F4500A22E86A0B2208C0A3
:10022C0000F009C001F00AC002F00BC003F012008C
:10023C00020E0C6E490E0D6E0D2EFED70C2EFCD739
:06024C000000000012009A
:10025200CB50010F006E016A000E01225EC004F055
:10026200000E056EC2DF060E026E00C004F001C071
:1002720005F0025005E005320432059EFF0FFAD761
:10028200040E016E04C000F0015004E0003600903C
:10029200FF0FFBD7300E0014036E04C000F005C040
:1002A20001F001320032019E01320032019E00C093
:0C02B200BEFF0F0EBD160350BD1212005F
:1002BE000050086E0150006E016A026A036A0B6AF2
:1002CE000C6A960E036E0A6A00C001F008C000F0B8
:0802DE00086A026A2FDF12001A
:0802E6009484F00EBD16120015
:1002EE00969296949598959A959C959E84928494C0
:1002FE00839E839C839A839892DE91DE90DE838A1E
:10030E008388848284DE84928ADE848280DE849274
:10031E0086DE84827CDE849282DE8398848277DE1F
:10032E0084927DDE848273DE8492839A838E8482AD
:10033E006EDE849274DE839E8388848268DE84926D
:10034E008398848264DE84926ADE848260DE849284
:10035E00838884825CDE849262DE8398848257DE98
:10036E008492838E838C838A8388848250DE8492E7
:06037E0056DE2D80120086
:100384000900F5CFE6FF0006FBE10106F9E11200E2
:10039400C26A1D1C006E0050C116070EC012C08E2A
:1003A4005EC000F000360090003600900050C2128B
:1003B400C280FEDEC282C2A201D0FDD7C4CF01F04A
:0E03C400006AC3500012000E0112C290120017
:0803D200BE6ABD98BD9A12003D
:1003DA005E6A050E5E5C0BE25E5000017925E16EF5
:1003EA00000E7A21E26E200EE66E5E2AF2D7000136
:1003FA005E507925E16E000E7A21E26EE66A5E06AB
:10040A005E5079255F6E000E7A21606F0A0E046EC7
:10041A00000E056E77C000F078C001F064DE08C0F7
:10042A0000F009C001F0300E00265FC0E1FF60C095
:10043A00E2FF00C0E6FF0A0E046E000E056E77C0EA
:10044A0000F078C001F04FDE00C077F001C078F00C
:10045A00000E011802E1000E001801E102D05E064A
:04046A00CFD71200D6
:10046E000B6A0C6A0A6A0350D8B481EF02F0028E4E
:10047E008E0E035E03BE49EF02F0D8B449EF02F0D0
:10048E0085EF02F0036C080E035CD8A060EF02F05B
:10049E00036E013602C001F0026A080E035CD8A09A
:1004AE0060EF02F00136016A0350D8A4D8906AEFCB
:1004BE0002F00350D8B46AEF02F0D8900232013243
:1004CE00032E64EF02F00BBC01A077EF02F0D8A070
:1004DE0077EF02F0012AD8B4022A02BE94EF02F09E
:1004EE000AAE99EF02F0021E011E012AD8B4022AAA
:1004FE0099EF02F0026A016A99EF02F00B800BAEDF
:10050E009DEF02F0026A0AAE9DEF02F0FF0E026E40
:10051E00016E0A3602329DEF02F0010E0C6EFCDD0A
:10052E009FEF02F0000E0C6E9FEF02F0FF0E0C6EAE
:0A053E000150006E0250016E120021
:0A0548009494CA840C0EBD12120038
:1005520010D0800E0001776F1AD0C00E776F17D0BF
:10056200940E776F14D0D40E776F11D0800E776F00
:100572000ED000017751010AECE07751020AEDE05A
:100582007751030AEDE07751040AEDE0EFD77805E1
:10059200006E7751002600C077F000C07DF050DD7C
:1005A2002D905E6A5E507925E96E000E7A21EA6E20
:1005B200EE520BE05E507925E96E000E7A21EA6E6A
:0E05C200EECF7CF00CDE5E2AEDD72D8012000D
:1005D000086A096A000E076203646DEF03F00250B7
:1005E00006180A6E075003267E0ED8A0FEEF02F012
:1005F000035ED8B071EF03F002EF03F0035ED8A002
:1006000075EF03F0028E068E02C00EF001C00BF0F3
:1006100000C00DF000500402F4CF0CF001500502B0
:10062000F4CF00F0F3CF08F00402F3500C26F4509E
:100630000822000E00220D500502F3500C26F45043
:100640000822000E002202500402F3500826F45043
:10065000002202500502016A000E0122F35000261A
:10066000F45001220D500602F3500826F4500022E7
:10067000026A000E012202220B500602F3500026ED
:10068000F4500122000E02220E500602F350012601
:10069000F450022202BE55EF03F008360036013650
:1006A00002360306D8B475EF03F068EF03F0D88084
:1006B000800E08640030000E002201220222D8A021
:1006C00068EF03F0023201320032034A71EF03F0A7
:1006D0000AAE029E000E77EF03F0010EF5DC77EF15
:1006E00003F0020E6DDD77EF03F0040EF4DC120070
:1006F0000B6A0C6A0A6A0350D8B4ADEF03F00A9E85
:10070000028E860E035E03BE8BEF03F0D8B48BEF30
:1007100003F0B0EF03F0036C080E035CD8A099EF70
:1007200003F0036E0236026A0350D8A4D890A2EFF9
:1007300003F00350D8B4A2EF03F0D8900232032E96
:100740009DEF03F00BBC02A0ADEF03F0D8A0ADEF1E
:1007500003F0022AD8B4B7EF03F0016ABCEF03F04C
:100760000B800BAEC0EF03F0016AC0EF03F0010E87
:100770000C6ED9DCC2EF03F0000E0C6EC2EF03F07A
:0A078000FF0E0C6E0250006E120016
:10078A005F6A79C001F0010E006E015004E0003684
:10079A000090FF0FFBD700C05EF077C0E9FF78C07A
:1007AA00EAFF0050EE14016E0152010ED8A4000EA9
:1007BA00006E00017B51001A18E07A51000804E229
:1007CA0038DD37DD7A07F9D777C0E9FF78C0EAFF65
:1007DA005E50EE14016E0152010ED8A4000E006E96
:1007EA007B51001A02E0FF0E5F6E5FC000F012003C
:1007FA000450000A12E10550000A0FE10650000AEF
:10080A000CE10750000A09E1FF0E006EFF0E016EAF
:10081A007F0E026EFF0E036EA6D0086A096A0750A1
:10082A00D8B4A8EF04F00350D8B4ACEF04F00250E7
:10083A0006180A6E028E068E0E6A02C008F001C001
:10084A000CF000C00DF004500D5E0550D8A0053C18
:10085A000C5E0650D8A0063C085E086A0C6A0D6A4F
:10086A00D8A03FEF04F0D8900232013200320832A9
:10087A00010E0E6E0750035ED8A04CEF04F07E0EF8
:10088A000E240326D8B0B1EF04F052EF04F07E0E26
:10089A000E240326D8A0B5EF04F0180E0B6E0D3601
:1008AA000C3608360036013602360E360450005E23
:1008BA000550D8A0053C015E0650D8A0063C025E51
:1008CA0006340E120EA06DEF04F00D8078EF04F0DE
:1008DA00045000260550D8B0053C01260650D8B071
:1008EA00062802260D900B2E54EF04F09EEF04F01A
:1008FA00D8900036013602360E360450005E055096
:10090A00D8A0053C015E0650D8A0063C025E06341B
:10091A000E10010B0D26D8B00C2AD8B4082AD8A478
:10092A009EEF04F008320C320D32032AD8B4B1EF2C
:10093A0004F00AAE089E0850026E0C50016E0D506B
:10094A00006EB8EF04F0010E42DCB8EF04F0020EBC
:10095A0064EC00F0B8EF04F0040E2DDCB8EF04F0FC
:08096A00080E6BEC00F0120016
:10097200FDEC07F0C40EF66E0F0EF76E000EF86E69
:100982002E0EE16E000EE26E1E0E006E010E016E64
:10099200F8DC050E926E956A946AA8DC0C0E0001D2
:1009A2007D6F21EC00F00C0EC16ECA80CA92630EFC
:1009B200CB6E0EDDF70ED66EC20ED76E840ED56EDE
:1009C200F294836A3C0E936E020E5E6EE2DC00C00D
:1009D20004F001C005F005320432059E04C000F0A7
:1009E20005C001F06BDC00C05AF001C05BF002C030
:1009F2005CF003C05DF05E6ACCDC60DC140E046E59
:100A0200AE0E056E230E066E820E076EF5DE00C078
:100A120061F001C062F002C063F003C064F05AC02A
:100A220000F05BC001F05CC002F05DC003F01EDDAF
:100A320000C077F001C078F0650E0001796F000EFA
:100A42007A6FCADC36C077F037C078F06B0E796FF8
:100A5200000E7A6FC1DC61C000F062C001F063C0B9
:100A620002F064C003F002DD00C077F001C078F04C
:100A7200710E796F000E7A6FAFDC65DD010E776F54
:100A8200010E786F260E796F000E7A6F61DD010E0E
:100A9200776F070E786F650E796F000E7A6F58DDEB
:100AA200020E776F010E786F1E0E796F000E7A6F4D
:100AB2004FDD020E776F070E786F6B0E796F000EA7
:100AC2007A6F46DD030E776FFD0E786F150E796F24
:100AD200000E7A6F3DDD030E776F030E786F710E95
:100AE200796F000E7A6F34DD000E331802E1000ECA
:100AF200321812E1380E806E32C000F033C001F0BD
:100B0200003600900136380E0024E96E000E0120F6
:100B1200EA6EEECF83FF91D0000E311802E1010E92
:100B22003018D8A48AD0100E806E32C000F033C0C4
:100B320001F0003600900136380E0024E96E000EF6
:100B42000120EA6EEECF83FF030E0C6E970E0D6E40
:100B52000D2EFED70C2EFCD700000000200E806E5A
:100B62003F0E836E030E0C6E970E0D6E0D2EFED78A
:100B72000C2EFCD700000000080E806E34C000F07E
:100B820035C001F0003600900136380E0024E96EBF
:100B9200000E0120EA6EEECF83FF030E0C6E970E5D
:100BA2000D6E0D2EFED70C2EFCD700000000810E1C
:100BB200776F0F0E786F030E796F010E7A6F7B6B72
:100BC200E3DD00522BE0000E351802E1090E341865
:100BD20009E1000E331802E1050E321803E1010E9D
:100BE200006E01D0006A00520CE1324A332A000E34
:100BF200331802E1060E321804E1326A336A344ACB
:100C0200352A020E0B6E040E0C6EBA0E0D6E0D2EF0
:100C1200FED70C2EFCD70B2EFAD70000810E776F71
:100C22000F0E786F050E796F010E7A6F7B6BACDD5C
:100C3200005202E0306A316A6FD7810E776F0F0E71
:100C4200786F030E796F010E7A6F7B6B9DDD005218
:100C52000FE0324A332A020E0B6E040E0C6EBA0EED
:100C62000D6E0D2EFED70C2EFCD70B2EFAD70000E0
:100C7200810E776F0F0E786F040E796F010E7A6F07
:100C82007B6B82DD005217E0000E371802E1000E86
:100C9200361811E1020E0B6E040E0C6EBA0E0D6EBA
:100CA2000D2EFED70C2EFCD70B2EFAD70000010E0C
:100CB200366E000E376E810E776F0F0E786F040E50
:100CC200796F010E7A6F7B6B5FDD005215E0000ECB
:100CD200371802E1010E36180FE1020E0B6E040EF8
:100CE2000C6EBA0E0D6E0D2EFED70C2EFCD70B2EEF
:100CF200FAD70000366A376A810E776F0F0E786F67
:100D0200050E796F010E7A6F7B6B3EDD0052D8B40F
:100D120048D1000E331802E1000E321807E1000E2E
:100D2200351802E1000E341801E133D1000E3718F4
:100D320002E1000E3618D8A42CD1010E306E000E3E
:100D4200316E586A596A32C056F033C057F034C017
:100D520054F035C055F032C000F033C001F00A0E35
:100D6200046E000E056EF6EC00F000C04CF001C0FF
:100D72004DF0010E34244E6E000E35204F6E61C0D0
:100D820000F062C001F063C002F064C003F0330EF1
:100D9200046E330E056E230E066E800E076E17DC90
:100DA200A6DC00C05EF029EC01F0200E826E000E7F
:100DB2004F1802E1000E4E18D8B4E0D0936A000E2C
:100DC2004D1802E1000E4C18D8B4B7D0010E565E91
:100DD200000E575A090E586E000E596E0A0E526EC8
:100DE200000E536E800E006E800E5318005C02E1FE
:100DF20052500008D8B0A0D0020E5E6ECAEC01F0CC
:100E020000C004F001C005F005320432059E04C0A2
:100E120000F005C001F05FEC01F000C05AF001C023
:100E22005BF002C05CF003C05DF037EC02F000C082
:100E320077F001C078F0650E0001796F000E7A6FCD
:100E4200EDEC01F0010E776F070E786F650E796F8A
:100E5200000E7A6FA9EC02F0E60E506E000E516E93
:100E6200800E006E800E5118005C02E150500008A6
:100E720056E2200E806E58C000F059C001F00036D4
:100E820000900136380E0024E96E000E0120EA6E51
:100E9200EECF83FF030E0C6E970E0D6E0D2EFED756
:100EA2000C2EFCD700000000100E806E56C000F021
:100EB20057C001F0003600900136380E0024E96E6A
:100EC200000E0120EA6EEECF83FF030E0C6E970E2A
:100ED2000D6E0D2EFED70C2EFCD700000000080E62
:100EE200806E54C000F055C001F00036009001360B
:100EF200380E0024E96E000E0120EA6EEECF83FF69
:100F0200030E0C6E970E0D6E0D2EFED70C2EFCD717
:100F120000000000010E505E000E515AA1D7010ED2
:100F2200585E000E595A010E4C5E000E4D5A010ECB
:100F3200525E000E535A56D742D7000E4F1802E1A6
:100F4200000E4E181AE0060E566E000E576E3C0E3C
:100F52004C6E000E4D6E010E545E000E555A010E7F
:100F62004E5E000E4F5A030E0C6E970E0D6E0D2E36
:100F7200FED70C2EFCD70000000019D75E6A29ECC0
:100F820001F073EC01F0010E2E6E000E2F6E826ADC
:100F9200F294326A336A010E306E000E316E346A98
:100FA200356AF2A40CD0F294000E2F1802E1010E61
:100FB2002E1804E12E6A2F6A828201D0829202D513
:020FC200FFD757
:100FFA0010EE15F0180E006E010E016EE20EF66E7E
:0E100A000F0EF76E000EF86EC2EC01F0120031
:020FC40000002B
:020FC600010028
:020FC800000027
:020FCA00000025
:020FCC00000023
:100FCE003F0006005B004F0066006D007D000700CD
:040FDE007F006F0021
:080FE200506F74656E3A2000A7
:010FEA0030D6
:080FEB00506F7274613A20009E
:070FF30054656D703A200007
:020000040030CA
:0E000000000C1F1EFF8381FF0FC00FE00F409A
:00000001FF
